{
    "_format": "hh-sol-artifact-1",
    "contractName": "Identeefi",
    "sourceName": "contracts/Identeefi.sol",
    "abi": [
        {
            "inputs": [
                {
                    "internalType": "string",
                    "name": "_serialNumber",
                    "type": "string"
                },
                {
                    "internalType": "string",
                    "name": "_actor",
                    "type": "string"
                },
                {
                    "internalType": "string",
                    "name": "_location",
                    "type": "string"
                },
                {
                    "internalType": "string",
                    "name": "_timestamp",
                    "type": "string"
                }
            ],
            "name": "addProductHistory",
            "outputs": [],
            "stateMutability": "nonpayable",
            "type": "function"
        },
        {
            "inputs": [
                {
                    "internalType": "string",
                    "name": "_serialNumber",
                    "type": "string"
                }
            ],
            "name": "getProduct",
            "outputs": [
                {
                    "internalType": "string",
                    "name": "",
                    "type": "string"
                },
                {
                    "internalType": "string",
                    "name": "",
                    "type": "string"
                },
                {
                    "internalType": "string",
                    "name": "",
                    "type": "string"
                },
                {
                    "internalType": "string",
                    "name": "",
                    "type": "string"
                },
                {
                    "internalType": "string",
                    "name": "",
                    "type": "string"
                },
                {
                    "components": [
                        {
                            "internalType": "uint256",
                            "name": "id",
                            "type": "uint256"
                        },
                        {
                            "internalType": "string",
                            "name": "actor",
                            "type": "string"
                        },
                        {
                            "internalType": "string",
                            "name": "location",
                            "type": "string"
                        },
                        {
                            "internalType": "string",
                            "name": "timestamp",
                            "type": "string"
                        }
                    ],
                    "internalType": "struct Identeefi.ProductHistory[]",
                    "name": "",
                    "type": "tuple[]"
                },
                {
                    "internalType": "bool",
                    "name": "",
                    "type": "bool"
                }
            ],
            "stateMutability": "view",
            "type": "function"
        },
        {
            "inputs": [],
            "name": "owner",
            "outputs": [
                {
                    "internalType": "address",
                    "name": "",
                    "type": "address"
                }
            ],
            "stateMutability": "view",
            "type": "function"
        },
        {
            "inputs": [
                {
                    "internalType": "string",
                    "name": "_name",
                    "type": "string"
                },
                {
                    "internalType": "string",
                    "name": "_brand",
                    "type": "string"
                },
                {
                    "internalType": "string",
                    "name": "_serialNumber",
                    "type": "string"
                },
                {
                    "internalType": "string",
                    "name": "_description",
                    "type": "string"
                },
                {
                    "internalType": "string",
                    "name": "_image",
                    "type": "string"
                },
                {
                    "internalType": "bool",
                    "name": "_isSold",
                    "type": "bool"
                }
            ],
            "name": "registerProduct",
            "outputs": [],
            "stateMutability": "nonpayable",
            "type": "function"
        }
    ],
    "bytecode": "0x608060405234801561001057600080fd5b50611462806100206000396000f3fe608060405234801561001057600080fd5b506004361061004c5760003560e01c80631581e0ea1461005157806368111cce1461006d5780638da5cb5b146100a3578063a44ecf2c146100c1575b600080fd5b61006b60048036038101906100669190610acf565b6100dd565b005b61008760048036038101906100829190610be8565b610188565b60405161009a9796959493929190610e55565b60405180910390f35b6100ab610821565b6040516100b89190610f2f565b60405180910390f35b6100db60048036038101906100d69190610f4a565b610845565b005b60006001856040516100ef919061105d565b90815260200160405180910390209050868160000190816101109190611280565b50858160030190816101229190611280565b50848160010190816101349190611280565b50838160020190816101469190611280565b50828160040190816101589190611280565b5060008160060181905550818160070160006101000a81548160ff02191690831515021790555050505050505050565b6060806060806060806000806001896040516101a4919061105d565b90815260200160405180910390206006015467ffffffffffffffff8111156101cf576101ce61096c565b5b60405190808252806020026020018201604052801561020857816020015b6101f5610915565b8152602001906001900390816101ed5790505b5090506000600190505b60018a604051610222919061105d565b9081526020016040518091039020600601548110156104755760018a60405161024b919061105d565b9081526020016040518091039020600501600060018361026b9190611381565b81526020019081526020016000206040518060800160405290816000820154815260200160018201805461029e906110a3565b80601f01602080910402602001604051908101604052809291908181526020018280546102ca906110a3565b80156103175780601f106102ec57610100808354040283529160200191610317565b820191906000526020600020905b8154815290600101906020018083116102fa57829003601f168201915b50505050508152602001600282018054610330906110a3565b80601f016020809104026020016040519081016040528092919081815260200182805461035c906110a3565b80156103a95780601f1061037e576101008083540402835291602001916103a9565b820191906000526020600020905b81548152906001019060200180831161038c57829003601f168201915b505050505081526020016003820180546103c2906110a3565b80601f01602080910402602001604051908101604052809291908181526020018280546103ee906110a3565b801561043b5780601f106104105761010080835404028352916020019161043b565b820191906000526020600020905b81548152906001019060200180831161041e57829003601f168201915b505050505081525050828281518110610457576104566113b5565b5b6020026020010181905250808061046d906113e4565b915050610212565b50600189604051610486919061105d565b908152602001604051809103902060000160018a6040516104a7919061105d565b908152602001604051809103902060030160018b6040516104c8919061105d565b908152602001604051809103902060010160018c6040516104e9919061105d565b908152602001604051809103902060020160018d60405161050a919061105d565b90815260200160405180910390206004018560018f60405161052c919061105d565b908152602001604051809103902060070160009054906101000a900460ff16868054610557906110a3565b80601f0160208091040260200160405190810160405280929190818152602001828054610583906110a3565b80156105d05780601f106105a5576101008083540402835291602001916105d0565b820191906000526020600020905b8154815290600101906020018083116105b357829003601f168201915b505050505096508580546105e3906110a3565b80601f016020809104026020016040519081016040528092919081815260200182805461060f906110a3565b801561065c5780601f106106315761010080835404028352916020019161065c565b820191906000526020600020905b81548152906001019060200180831161063f57829003601f168201915b5050505050955084805461066f906110a3565b80601f016020809104026020016040519081016040528092919081815260200182805461069b906110a3565b80156106e85780601f106106bd576101008083540402835291602001916106e8565b820191906000526020600020905b8154815290600101906020018083116106cb57829003601f168201915b505050505094508380546106fb906110a3565b80601f0160208091040260200160405190810160405280929190818152602001828054610727906110a3565b80156107745780601f1061074957610100808354040283529160200191610774565b820191906000526020600020905b81548152906001019060200180831161075757829003601f168201915b50505050509350828054610787906110a3565b80601f01602080910402602001604051908101604052809291908181526020018280546107b3906110a3565b80156108005780601f106107d557610100808354040283529160200191610800565b820191906000526020600020905b8154815290600101906020018083116107e357829003601f168201915b50505050509250975097509750975097509750975050919395979092949650565b60008054906101000a900473ffffffffffffffffffffffffffffffffffffffff1681565b6000600185604051610857919061105d565b9081526020016040518091039020905080600601600081548092919061087c906113e4565b919050555060405180608001604052808260060154815260200185815260200184815260200183815250816005016000836006015481526020019081526020016000206000820151816000015560208201518160010190816108de9190611280565b5060408201518160020190816108f49190611280565b50606082015181600301908161090a9190611280565b509050505050505050565b6040518060800160405280600081526020016060815260200160608152602001606081525090565b6000604051905090565b600080fd5b600080fd5b600080fd5b600080fd5b6000601f19601f8301169050919050565b7f4e487b7100000000000000000000000000000000000000000000000000000000600052604160045260246000fd5b6109a48261095b565b810181811067ffffffffffffffff821117156109c3576109c261096c565b5b80604052505050565b60006109d661093d565b90506109e2828261099b565b919050565b600067ffffffffffffffff821115610a0257610a0161096c565b5b610a0b8261095b565b9050602081019050919050565b82818337600083830152505050565b6000610a3a610a35846109e7565b6109cc565b905082815260208101848484011115610a5657610a55610956565b5b610a61848285610a18565b509392505050565b600082601f830112610a7e57610a7d610951565b5b8135610a8e848260208601610a27565b91505092915050565b60008115159050919050565b610aac81610a97565b8114610ab757600080fd5b50565b600081359050610ac981610aa3565b92915050565b60008060008060008060c08789031215610aec57610aeb610947565b5b600087013567ffffffffffffffff811115610b0a57610b0961094c565b5b610b1689828a01610a69565b965050602087013567ffffffffffffffff811115610b3757610b3661094c565b5b610b4389828a01610a69565b955050604087013567ffffffffffffffff811115610b6457610b6361094c565b5b610b7089828a01610a69565b945050606087013567ffffffffffffffff811115610b9157610b9061094c565b5b610b9d89828a01610a69565b935050608087013567ffffffffffffffff811115610bbe57610bbd61094c565b5b610bca89828a01610a69565b92505060a0610bdb89828a01610aba565b9150509295509295509295565b600060208284031215610bfe57610bfd610947565b5b600082013567ffffffffffffffff811115610c1c57610c1b61094c565b5b610c2884828501610a69565b91505092915050565b600081519050919050565b600082825260208201905092915050565b60005b83811015610c6b578082015181840152602081019050610c50565b60008484015250505050565b6000610c8282610c31565b610c8c8185610c3c565b9350610c9c818560208601610c4d565b610ca58161095b565b840191505092915050565b600081519050919050565b600082825260208201905092915050565b6000819050602082019050919050565b6000819050919050565b610cef81610cdc565b82525050565b600082825260208201905092915050565b6000610d1182610c31565b610d1b8185610cf5565b9350610d2b818560208601610c4d565b610d348161095b565b840191505092915050565b6000608083016000830151610d576000860182610ce6565b5060208301518482036020860152610d6f8282610d06565b91505060408301518482036040860152610d898282610d06565b91505060608301518482036060860152610da38282610d06565b9150508091505092915050565b6000610dbc8383610d3f565b905092915050565b6000602082019050919050565b6000610ddc82610cb0565b610de68185610cbb565b935083602082028501610df885610ccc565b8060005b85811015610e345784840389528151610e158582610db0565b9450610e2083610dc4565b925060208a01995050600181019050610dfc565b50829750879550505050505092915050565b610e4f81610a97565b82525050565b600060e0820190508181036000830152610e6f818a610c77565b90508181036020830152610e838189610c77565b90508181036040830152610e978188610c77565b90508181036060830152610eab8187610c77565b90508181036080830152610ebf8186610c77565b905081810360a0830152610ed38185610dd1565b9050610ee260c0830184610e46565b98975050505050505050565b600073ffffffffffffffffffffffffffffffffffffffff82169050919050565b6000610f1982610eee565b9050919050565b610f2981610f0e565b82525050565b6000602082019050610f446000830184610f20565b92915050565b60008060008060808587031215610f6457610f63610947565b5b600085013567ffffffffffffffff811115610f8257610f8161094c565b5b610f8e87828801610a69565b945050602085013567ffffffffffffffff811115610faf57610fae61094c565b5b610fbb87828801610a69565b935050604085013567ffffffffffffffff811115610fdc57610fdb61094c565b5b610fe887828801610a69565b925050606085013567ffffffffffffffff8111156110095761100861094c565b5b61101587828801610a69565b91505092959194509250565b600081905092915050565b600061103782610c31565b6110418185611021565b9350611051818560208601610c4d565b80840191505092915050565b6000611069828461102c565b915081905092915050565b7f4e487b7100000000000000000000000000000000000000000000000000000000600052602260045260246000fd5b600060028204905060018216806110bb57607f821691505b6020821081036110ce576110cd611074565b5b50919050565b60008190508160005260206000209050919050565b60006020601f8301049050919050565b600082821b905092915050565b6000600883026111367fffffffffffffffffffffffffffffffffffffffffffffffffffffffffffffffff826110f9565b61114086836110f9565b95508019841693508086168417925050509392505050565b6000819050919050565b600061117d61117861117384610cdc565b611158565b610cdc565b9050919050565b6000819050919050565b61119783611162565b6111ab6111a382611184565b848454611106565b825550505050565b600090565b6111c06111b3565b6111cb81848461118e565b505050565b5b818110156111ef576111e46000826111b8565b6001810190506111d1565b5050565b601f82111561123457611205816110d4565b61120e846110e9565b8101602085101561121d578190505b611231611229856110e9565b8301826111d0565b50505b505050565b600082821c905092915050565b600061125760001984600802611239565b1980831691505092915050565b60006112708383611246565b9150826002028217905092915050565b61128982610c31565b67ffffffffffffffff8111156112a2576112a161096c565b5b6112ac82546110a3565b6112b78282856111f3565b600060209050601f8311600181146112ea57600084156112d8578287015190505b6112e28582611264565b86555061134a565b601f1984166112f8866110d4565b60005b82811015611320578489015182556001820191506020850194506020810190506112fb565b8683101561133d5784890151611339601f891682611246565b8355505b6001600288020188555050505b505050505050565b7f4e487b7100000000000000000000000000000000000000000000000000000000600052601160045260246000fd5b600061138c82610cdc565b915061139783610cdc565b92508282019050808211156113af576113ae611352565b5b92915050565b7f4e487b7100000000000000000000000000000000000000000000000000000000600052603260045260246000fd5b60006113ef82610cdc565b91507fffffffffffffffffffffffffffffffffffffffffffffffffffffffffffffffff820361142157611420611352565b5b60018201905091905056fea2646970667358221220de3786eec546933fe8897340c1679c9b96eaaab74527cc5a53ef9dae5e6bf19264736f6c63430008110033",
    "linkReferences": {},
    "deployedLinkReferences": {}
}